:02000000592B7A
:0400060000000800EE
:10000A00083083120313FC002330FD00FD0B0B287C
:06001A00FC0B0B2808009E
:10002000103083120313FD00FD0B1428000008009C
:1000300083120317B11B1F280313881321280313EE
:1000400088170317311B27280313081329280313C4
:1000500008170317B11A2F28031388123128031326
:1000600088160317311A3728031308123928031387
:100070000816031728183F280313081541280313EF
:1000800008110814032008100317B1194A28031394
:1000900088134C28031388170317311952280313A8
:1000A00008135428031308170317B1185A28031309
:1000B00088125C280313881603173118622803136B
:1000C0000812642803130816031728186A28031354
:1000D00008156C28031308110814032008100317CF
:0C00E000281C742805207528102008003A
:0800EC00FA1FF21300300800B6
:1000F4007B15FB1F84280130F300F201F101F001AC
:08010400FA0DF20CFF300800B7
:0E010C00F201F101F001F801F30100300800EA
:10011A00FB14FB1F9728FF30F300F200F100F000F8
:08012A00FA0DF20CFF30080091
:100132008312031728103008B1001820031728145F
:020142000800B3
:100144007B14FB1FAD28F201FA1FFF30F200F1000F
:0A015400F000FA0DF20CFF30080075
:10015E00A0017208031DC4287108F2007008F10096
:10016E00F001A0157208031DC4287108F200F101F8
:10017E00A011201672080319D2282008F302031DBD
:10018E00031CD6280310F21BDA28F00DF10DF20D28
:10019E00F30BCA28D6280130FC008620DD28023059
:0E01AE00FC007A20DD280430FC0076200800DA
:0E01BC008312031727088A0026088200080015
:0601CA00FB15FF300800E8
:1001D000803083120313F0007008073E8400FF3064
:0401E0008000080093
:1001E40083120313FB01730803192F297208FA0001
:1001F400F2178E30F302F31F3229F309F30A0830A1
:100204007302031C1529F300F10D7208F100F201C9
:1002140008307302031C1529F300F10DF101730872
:10022400031D03101D29730803191D290310F20C63
:10023400F10CF30B18297B1B711C2729031C27299C
:10024400F10A0319F20AF21B3E29FA1F4129F209A5
:10025400F109F10A0319F20A4129F201F1014129D4
:100264007B14FB1F4429F201FA1F4429FF30F200DA
:10027400F100FA0DF20C44290130FC00462900304B
:10028400FC004629FF30FC00FC0803194A29A2207F
:0A0294007108F0007208F100080084
:10029E00831203137008F8007108F000F101F201E7
:1002AE00F301FB01FC019630F300FA01F01F652902
:1002BE00F809F009F80A0319F00AFA177008F100A4
:0C02CE007808F000F801F201AF200800F1
:1002DA0083120317AB01AD01AE011030AF00043039
:1002EA002E020318A229F030031387008030F00091
:1002FA007008073E840003172F09F0007008800079
:10030A00032003200F3003130705F00070080317BA
:10031A00AC00700803199C292D08AB002C0803199E
:10032A009A29AC0CAC13AB0A93290430AE00AF0D7A
:10033A002F100430AD07AE0A74292B08F00008000C
:10034A00831203137408003A031DC0297508003A82
:10035A00031DC0297608003A031DC0297708003A10
:10036A00031DC029FF30F000FF30F1007F30F2009A
:10037A00FF30F3005B2A83120313770803194F2A0D
:10038A0073080319522A720876068039FA00F2179E
:10039A00F617A0017208F8007108FC007008FD0049
:1003AA007408FD027508031C750FFC027608031C0D
:1003BA00760FF802F801FC01FD01031CEB2903107A
:1003CA00F20CF10CF00CF80C0130A0007708F302E3
:1003DA00031CF5297E302007F3070318552AFA294A
:1003EA007E302007F307031C582A1830FA07FD0D40
:1003FA00FC0DF80DF00DF10DF20DA00D7408F002D0
:10040A007508031C750FF1027608031C760FF202B9
:10041A00760DA004201C132A7D141E2A7408F007E6
:10042A0075080318750FF10776080318760AF2079C
:10043A007D10FA031F307A05031DFC297B1B7D1CE6
:10044A00452A0310F00DF10DF20DA00D7408F0020B
:10045A007508031C750FF1027608031C760FF20269
:10046A00760D20040139FD070318FC0A0319F80A5E
:10047A00031D452AF80CFC0CFD0CF30A0319552A36
:10048A00FA1FF8137808F2007C08F1007D08F000E2
:10049A0000305A2A0130E5205A2A023086205A2A88
:0E04AA0004308D205A2A08307A200000080005
:1004B800DE208A110A128000840AA60A0319A70AF4
:0804C800F003031D5C2A08008B
:1004D00083160313081008110812881208138813D2
:1004E00083120810081188130813881208120520B7
:1004F000052005208816081608140320081005207A
:1005000008140320081005200814032008100520F3
:1005100008120814032008100520081403200810EE
:10052000881288170814032008100520881308165D
:1005300008140320081008120814032008100520CE
:1005400008140320081008160814032008100520BA
:1005500008120814032008108817081788160816B0
:0E0560000814032008100520031728140800B3
:10056E0083120313FB017308031D770803190E2B67
:10057E0072087606FA007708F3077E30031CCB2A42
:10058E00F3020318112BCE2AF302031C142B72084C
:10059E00F8007108FC007008FD00F817F61703103C
:1005AE00F201F101F0011830A0007D1CE82A740858
:1005BE00F00775080318750FF10776080318760F04
:1005CE00F207F20CF10CF00CF80CFC0CFD0C031005
:1005DE00A00BDC2AF21BF82AF80DF00DF10DF20D2E
:1005EE00F3037B1B701C0A2BF81F0A2BF00A03194E
:1005FE00F10A0319F20A031D0A2BF20CF10CF00C8E
:10060E00F30A0319112BFA1FF2130030162B0130C7
:10061E008620162B02308D20162B04307A200000F7
:02062E000800C2
:100630002A2B803083120317AB003D2BC030AB0058
:100640003D2B9430AB003D2BD430AB003D2B8030A4
:10065000AB003D2B831203172B08013A0319192B0A
:100660002B08023A03191E2B2B08033A0319212BDE
:100670002B08043A0319242B272B2C03F0002B08FA
:10068000F0077008AB007008B1001820031728109D
:10069000AE012E082D07840000080319572B2E08E1
:1006A0002D0784000008B0009920AE0A492B2814B9
:0206B000080040
:1006B200542683120313081468220130B100182053
:1006C2000C300317B1001820103083168600013059
:1006D20083120317AB000130AC004330AD00182386
:1006E2000230AB000130AC003930AD0018230330CA
:1006F200FB008A30FC005530FD00FD0B7E2BFC0B0D
:100702007E2BFB0B7E2B000000000130B100182075
:100712000C300317B100182001300317AB00013071
:10072200AC002130AD0018230230AB000130AC0028
:100732002A30AD0018230313EF01E8200313EE0162
:100742006D2170080313EE0070080319A12BD92B39
:100752003130EE00192C3230EE00192C3330EE001D
:10076200192C4130EE00192C3430EE00192C3530A2
:10077200EE00192C3630EE00192C4230EE00192C06
:100782003730EE00192C3830EE00192C3930EE00DB
:10079200192C4330EE00192C2A30EE00192C30307F
:1007A200EE00192C2330EE00192C4430EE00192CE7
:1007B2006E08013A0319A92B6E08023A0319AC2BF1
:1007C2006E08033A0319AF2B6E08043A0319B22BD1
:1007D2006E08053A0319B52B6E08063A0319B82BB1
:1007E2006E08073A0319BB2B6E08083A0319BE2B91
:1007F2006E08093A0319C12B6E080A3A0319C42B71
:100802006E080B3A0319C72B6E080C3A0319CA2B50
:100812006E080D3A0319CD2B6E080E3A0319D02B30
:100822006E080F3A0319D32B6E08103A0319D62B10
:100832006E082A3A0319362C6E08233A0319362C0D
:100842006E08413A0319362C6E08413A0319362CC8
:100852006E08423A0319362C6E08433A0319362CB5
:100862006E08443A0319362C5C2CCD01CE010130BE
:100872000317B100182001300317AB000130AC00A0
:10088200CE30AD0018230230AB000130AC00BA30DC
:10089200AD0018230630FB001330FC00AD30FD0024
:1008A200FD0B512CFC0B512CFB0B512C00000000BA
:1008B2000130B10018204D086D0784006E08000653
:1008C200031D662CCD0A0319CE0A00304E06031D05
:1008D2006C2C04304D06031D9A2D01300317B10014
:1008E200182001300317AB000130AC001030AD000E
:1008F20018231030FB003930FC000D30FD00FD0BD9
:10090200802CFC0B802CFB0B802C000000000130A3
:10091200B100182003138F018E0106140330FD006D
:10092200FD0B912C0610061A972C942C1014061EFF
:100932009B2C982C10100F08F100F0010E08F00407
:100942000030F1044F219630F4004330F5000B30B3
:10095200F6007A30F700B7220030F4000030F500DC
:100962000030F6008030F700A521F220700803174E
:10097200A9007108AA008030F2008030710672026C
:10098200031DC52C70080F3C0318E72C0130AB0087
:100992000130AC00E830AD0018230230AB0001306A
:1009A200AC00DF30AD0018231030FB003930FC0002
:1009B2000D30FD00FD0BDB2CFC0BDB2CFB0BDB2CD1
:1009C200000000000130B10018208B2D8030F000B3
:1009D200803003172A067002031DF12C29080A3CF5
:1009E20003181E2D8030F00080302A067002031D8D
:1009F200FC2C29080F3C031C1E2D0130AB000130DA
:100A0200AC00B230AD0018230230AB000130AC00B4
:100A12006130AD0018231030FB003930FC000D307E
:100A2200FD00FD0B122DFC0B122DFB0B122D0000F5
:100A320000000130B10018208B2D8030F000803092
:100A420003172A067002031D282D2908053C0318E6
:100A5200552D8030F00080302A067002031D332DA0
:100A620029080A3C031C552D0130AB000130AC00B3
:100A72005930AD0018230230AB000130AC004F30CA
:100A8200AD0018231030FB003930FC000D30FD00A2
:100A9200FD0B492DFC0B492DFB0B492D00000000DD
:100AA2000130B10018208B2D8030F0008030031708
:100AB2002A067002031D5F2D2908003C03188B2DA6
:100AC2008030F00080302A067002031D6A2D29084A
:100AD200053C031C8B2D0130AB000130AC00AA3069
:100AE200AD0018230230AB000130AC00A030AD00E5
:100AF20018231030FB003930FC000D30FD00FD0BD7
:100B0200802DFC0B802DFB0B802D0000000001309E
:100B1200B10018200630FB001330FC00AD30FD00A0
:100B2200FD0B912DFC0B912DFB0B912D0000000074
:060B32008B2C9F2B9B2D74
:100CA800213084004C3083120313F000A130031765
:100CB800A6000530A7005C22A03084001A30F0009E
:100CC80023300317A6000630A7005C226D3084008D
:100CD8000130F00053300317A6000630A7005C224D
:100CE800BA3084003630F000ED300317A600053026
:100CF800A7005C221030831784001630F0003D30C6
:0E0D08000317A6000630A7005C228313080024
:100B4200573465346C3463346F346D346534213416
:020B520000346D
:100B540045346E3474346534723420345034613422
:0E0B64007334733477346F3472346434003475
:100B720043346F3469346E342034423461346E3419
:040B82006B3400349C
:100B86004434693467346934743469347A34653486
:040B9600643400348F
:040B9A0000340034EF
:100B9E0047344F344F34443420344A344F34423483
:040BAE0021340034BA
:100BB2004C344534563445344C34203433340034C8
:100BC2004B34453445345034203449345434203481
:080BD200553450342134003485
:100BDA0050346C346534613473346534203474347D
:100BEA0072347934203461346734613469346E3450
:080BFA002E342E342E34003499
:100C020049344E34563441344C344934443420341B
:100C1200503441345334533443344F3444344534E0
:020C220000349C
:100C2400533441345634453420345534503421340B
:020C340000348A
:100C36004C344534563445344C3420343134003445
:100C460047344F344F34443420344A344F344234DA
:040C56002134003411
:100C5A004C344534563445344C342034343400341E
:100C6A004C344534563445344C3420343234003410
:100C7A002A342A342A342A345634453452344934EC
:100C8A0046344934453444342A342A342A342A34FA
:020C9A00003424
:0A0C9C00313432343434353400347E
:020CA6002134F7
:02400E004A2F37
:00000001FF
