:020000005D2B76
:0400060000000800EE
:10000A00103083120313FD00FD0B092800000800BD
:10001A00083083120313FC002330FD00FD0B132864
:06002A00FC0B1328080086
:1000300083120317B11B1F280313881321280313EE
:1000400088170317311B27280313081329280313C4
:1000500008170317B11A2F28031388123128031326
:1000600088160317311A3728031308123928031387
:100070000816031728183F280313081541280313EF
:1000800008110814032008100317B1194A28031394
:1000900088134C28031388170317311952280313A8
:1000A00008135428031308170317B1185A28031309
:1000B00088125C280313881603173118622803136B
:1000C0000812642803130816031728186A28031354
:1000D00008156C28031308110814032008100317CF
:0C00E000281C74280D207528052008003D
:0800EC00FA1FF21300300800B6
:1000F4007B15FB1F84280130F300F201F101F001AC
:08010400FA0DF20CFF300800B7
:0E010C00F201F101F001F801F30100300800EA
:06011A00FB15FF30080098
:10012000A0017208031DA5287108F2007008F100F3
:10013000F001A0157208031DA5287108F200F10155
:10014000A011201672080319B3282008F302031D1A
:10015000031CB7280310F21BBB28F00DF10DF20DA4
:10016000F30BAB28B7280130FC008620BE280230F4
:0E017000FC007A20BE280430FC007620080037
:10017E007B14FB1FCA28F201FA1FFF30F200F100B8
:0A018E00F000FA0DF20CFF3008003B
:0E0198008312031727088A0026088200080039
:1001A6008312031728103008B100182003172814EB
:0201B60008003F
:1001B800FB14FB1FE628FF30F300F200F100F0000B
:0801C800FA0DF20CFF300800F3
:1001D00083120313FB017308031925297208FA001F
:1001E000F2178E30F302F31F2829F309F30A0830BF
:1001F0007302031C0B29F300F10D7208F100F201E8
:1002000008307302031C0B29F300F10DF101730890
:10021000031D031013297308031913290310F20C8B
:10022000F10CF30B0E297B1B711C1D29031C1D29CE
:10023000F10A0319F20AF21B3429FA1F3729F209CD
:10024000F109F10A0319F20A3729F201F1013729FC
:100250007B14FB1F3A29F201FA1F3A29FF30F20002
:10026000F100FA0DF20C3A290130FC003C29003073
:10027000FC003C29FF30FC00FC0803194029BF208A
:0A0280007108F0007208F100080098
:10028A00831203137408003A031D60297508003AA3
:10029A00031D60297608003A031D60297708003A91
:1002AA00031D6029FF30F000FF30F1007F30F200BB
:1002BA00FF30F300FB298312031377080319EF2990
:1002CA0073080319F229720876068039FA00F217C0
:1002DA00F617A0017208F8007108FC007008FD000A
:1002EA007408FD027508031C750FFC027608031CCE
:1002FA00760FF802F801FC01FD01031C8B2903109B
:10030A00F20CF10CF00CF80C0130A0007708F302A3
:10031A00031C95297E302007F3070318F5299A292B
:10032A007E302007F307031CF8291830FA07FD0D61
:10033A00FC0DF80DF00DF10DF20DA00D7408F00290
:10034A007508031C750FF1027608031C760FF2027A
:10035A00760DA004201CB3297D14BE297408F00769
:10036A0075080318750FF10776080318760AF2075D
:10037A007D10FA031F307A05031D9C297B1B7D1C07
:10038A00E5290310F00DF10DF20DA00D7408F0022D
:10039A007508031C750FF1027608031C760FF2022A
:1003AA00760D20040139FD070318FC0A0319F80A1F
:1003BA00031DE529F80CFC0CFD0CF30A0319F529B9
:1003CA00FA1FF8137808F2007C08F1007D08F000A3
:1003DA000030FA2901308D20FA2902308620FA29C4
:0E03EA000430DC20FA2908307A2000000800D8
:1003F800803083120313F0007008073E8400FF303A
:040408008000080068
:10040C00831203137008F8007108F000F101F20177
:10041C00F301FB01FC019630F300FA01F01F1C2ADA
:10042C00F809F009F80A0319F00AFA177008F10034
:0C043C007808F000F801F20190200800A0
:1004480083120317AB01AD01AE011030AF000430C9
:100458002E020318592AF030031387008030F00069
:100468007008073E840003172F09F0007008800009
:10047800032003200F3003130705F000700803174B
:10048800AC0070080319532A2D08AB002C08031977
:10049800512AAC0CAC13AB0A4A2A0430AE00AF0D9B
:1004A8002F100430AD07AE0A2B2A2B08F0000800E5
:0804B80083120313081408006D
:1004C000CC208A110A128000840AA60A0319A70AFE
:0804D000F003031D602A08007F
:1004D80083160313081008110812881208138813CA
:1004E80083120810081188130813881208120D20A7
:1004F8000D200D20881608160814032008100D205A
:100508000814032008100D200814032008100D20DB
:1005180008120814032008100D20081403200810DE
:10052800881288170814032008100D20881308164D
:1005380008140320081008120814032008100D20BE
:1005480008140320081008160814032008100D20AA
:1005580008120814032008108817081788160816A8
:0E0568000814032008100D20031728140800A3
:1005760083120313FB017308031D77080319122B5B
:1005860072087606FA007708F3077E30031CCF2A36
:10059600F3020318152BD22AF302031C182B720838
:1005A600F8007108FC007008FD00F817F617031034
:1005B600F201F101F0011830A0007D1CEC2A74084C
:1005C600F00775080318750FF10776080318760FFC
:1005D600F207F20CF10CF00CF80CFC0CFD0C0310FD
:1005E600A00BE02AF21BFC2AF80DF00DF10DF20D1E
:1005F600F3037B1B701C0E2BF81F0E2BF00A03193E
:10060600F10A0319F20A031D0E2BF20CF10CF00C81
:10061600F30A0319152BFA1FF21300301A2B0130B7
:1006260086201A2B0230DC201A2B04307A20000098
:020636000800BA
:100638002E2B803083120317AB00412BC030AB0048
:10064800412B9430AB00412BD430AB00412B803090
:10065800AB00412B831203172B08013A03191D2BFA
:100668002B08023A0319222B2B08033A0319252BCE
:100678002B08043A0319282B2B2B2C03F0002B08EA
:10068800F0077008AB007008B10018200317281095
:10069800AE012E082D078400000803195B2B2E08D5
:1006A8002D0784000008B000D320AE0A4D2B281473
:0206B800080038
:1006BA0056265C226C220130B10018200C30031738
:1006CA00B1001820103083168600013083120317F8
:1006DA00AB000130AC004330AD001C230230AB004C
:1006EA000130AC003930AD001C230330FB008A30E6
:1006FA00FC005530FD00FD0B802BFC0B802BFB0B07
:10070A00802B000000000130B10018200C300317C4
:10071A00B100182001300317AB000130AC002130C2
:10072A00AD001C230230AB000130AC002A30AD0012
:10073A001C230313EF01FC210313EE01242270088A
:10074A000313EE0070080319A32BDB2B3130EE00E4
:10075A001B2C3230EE001B2C3330EE001B2C4130A8
:10076A00EE001B2C3430EE001B2C3530EE001B2C17
:10077A003630EE001B2C4230EE001B2C3730EE00D8
:10078A001B2C3830EE001B2C3930EE001B2C43306A
:10079A00EE001B2C2A30EE001B2C3030EE001B2CF6
:1007AA002330EE001B2C4430EE001B2C6E08013A5D
:1007BA000319AB2B6E08023A0319AE2B6E08033AE3
:1007CA000319B12B6E08043A0319B42B6E08053AC3
:1007DA000319B72B6E08063A0319BA2B6E08073AA3
:1007EA000319BD2B6E08083A0319C02B6E08093A83
:1007FA000319C32B6E080A3A0319C62B6E080B3A63
:10080A000319C92B6E080C3A0319CC2B6E080D3A42
:10081A000319CF2B6E080E3A0319D22B6E080F3A22
:10082A000319D52B6E08103A0319D82B6E082A3AE9
:10083A000319382C6E08233A0319382C6E08413AEA
:10084A000319382C6E08413A0319382C6E08423ABB
:10085A000319382C6E08433A0319382C6E08443AA7
:10086A000319382C5E2CCD01CE0101300317B100DB
:10087A00182001300317AB000130AC00CE30AD00B8
:10088A001C230230AB000130AC00BA30AD001C238F
:10089A000630FB001330FC00AD30FD00FD0B532C7D
:1008AA00FC0B532CFB0B532C000000000130B10051
:1008BA0018204D086D0784006E080006031D682C79
:1008CA00CD0A0319CE0A00304E06031D6E2C0430E1
:1008DA004D06031D9C2D01300317B100182001306D
:1008EA000317AB000130AC001030AD001C231030F0
:1008FA00FB003930FC000D30FD00FD0B822CFC0B97
:10090A00822CFB0B822C000000000130B100182061
:10091A0003138F018E0106140330FD00FD0B932C87
:10092A000610061A992C962C1014061E9D2C9A2C29
:10093A0010100F08F100F0010E08F0040030F10465
:10094A0006229630F4004330F5000B30F6007A3078
:10095A00F700BB220030F4000030F5000030F6004A
:10096A008030F7004521E82070080317A9007108B4
:10097A00AA008030F200803071067202031DC72C73
:10098A0070080F3C0318E92C0130AB000130AC00B1
:10099A00E830AD001C230230AB000130AC00DF3080
:1009AA00AD001C231030FB003930FC000D30FD0077
:1009BA00FD0BDD2CFC0BDD2CFB0BDD2C00000000FD
:1009CA000130B10018208D2D8030F00080300317DF
:1009DA002A067002031DF32C29080A3C0318202D4D
:1009EA008030F00080302A067002031DFE2C290890
:1009FA000F3C031C202D0130AB000130AC00B2309B
:100A0A00AD001C230230AB000130AC006130AD00F8
:100A1A001C231030FB003930FC000D30FD00FD0BAB
:100A2A00142DFC0B142DFB0B142D000000000130BB
:100A3A00B10018208D2D8030F000803003172A066F
:100A4A007002031D2A2D2908053C0318572D8030F2
:100A5A00F00080302A067002031D352D29080A3C51
:100A6A00031C572D0130AB000130AC005930AD00EA
:100A7A001C230230AB000130AC004F30AD001C2308
:100A8A001030FB003930FC000D30FD00FD0B4B2D02
:100A9A00FC0B4B2DFB0B4B2D000000000130B1006D
:100AAA0018208D2D8030F000803003172A0670023E
:100ABA00031D612D2908003C03188D2D8030F0009C
:100ACA0080302A067002031D6C2D2908053C031C80
:100ADA008D2D0130AB000130AC00AA30AD001C23D3
:100AEA000230AB000130AC00A030AD001C23103046
:100AFA00FB003930FC000D30FD00FD0B822DFC0B94
:100B0A00822DFB0B822D000000000130B10018205D
:100B1A000630FB001330FC00AD30FD00FD0B932DB9
:100B2A00FC0B932DFB0B932D000000008D2CA12BA9
:020B3A009D2DEF
:100CAC00213084004C3083120313F000A33003175F
:100CBC00A6000530A7006022A03084001A30F00096
:100CCC0025300317A6000630A70060226D30840083
:100CDC000130F00055300317A6000630A700602243
:100CEC00BA3084003630F000EF300317A600053020
:100CFC00A70060221030831784001630F0003F30BC
:0E0D0C000317A6000630A7006022831308001C
:100B4600573465346C3463346F346D346534213412
:020B5600003469
:100B580045346E347434653472342034503461341E
:0E0B68007334733477346F3472346434003471
:100B760043346F3469346E342034423461346E3415
:040B86006B34003498
:100B8A004434693467346934743469347A34653482
:040B9A00643400348B
:040B9E0000340034EB
:100BA20047344F344F34443420344A344F3442347F
:040BB20021340034B6
:100BB6004C344534563445344C34203433340034C4
:100BC6004B3445344534503420344934543420347D
:080BD600553450342134003481
:100BDE0050346C3465346134733465342034743479
:100BEE0072347934203461346734613469346E344C
:080BFE002E342E342E34003495
:100C060049344E34563441344C3449344434203417
:100C1600503441345334533443344F3444344534DC
:020C2600003498
:100C28005334413456344534203455345034213407
:020C3800003486
:100C3A004C344534563445344C3420343134003441
:100C4A0047344F344F34443420344A344F344234D6
:040C5A00213400340D
:100C5E004C344534563445344C342034343400341A
:100C6E004C344534563445344C342034323400340C
:100C7E002A342A342A342A345634453452344934E8
:100C8E0046344934453444342A342A342A342A34F6
:020C9E00003420
:0A0CA000313432343434353400347A
:020CAA002134F3
:02400E004A2F37
:00000001FF
